{
  "_format": "hh-sol-artifact-1",
  "contractName": "PerformanceTracker",
  "sourceName": "contracts/PerformanceTracker.sol",
  "abi": [
    {
      "anonymous": false,
      "inputs": [
        {
          "indexed": true,
          "internalType": "address",
          "name": "user",
          "type": "address"
        },
        {
          "indexed": false,
          "internalType": "string",
          "name": "contributionType",
          "type": "string"
        },
        {
          "indexed": false,
          "internalType": "uint256",
          "name": "points",
          "type": "uint256"
        },
        {
          "indexed": false,
          "internalType": "uint256",
          "name": "timestamp",
          "type": "uint256"
        }
      ],
      "name": "ContributionLogged",
      "type": "event"
    },
    {
      "inputs": [
        {
          "internalType": "uint256",
          "name": "",
          "type": "uint256"
        }
      ],
      "name": "allContributions",
      "outputs": [
        {
          "internalType": "address",
          "name": "user",
          "type": "address"
        },
        {
          "internalType": "string",
          "name": "contributionType",
          "type": "string"
        },
        {
          "internalType": "uint256",
          "name": "points",
          "type": "uint256"
        },
        {
          "internalType": "uint256",
          "name": "timestamp",
          "type": "uint256"
        }
      ],
      "stateMutability": "view",
      "type": "function"
    },
    {
      "inputs": [],
      "name": "getLeaderboard",
      "outputs": [
        {
          "internalType": "address[]",
          "name": "",
          "type": "address[]"
        },
        {
          "internalType": "uint256[]",
          "name": "",
          "type": "uint256[]"
        }
      ],
      "stateMutability": "view",
      "type": "function"
    },
    {
      "inputs": [
        {
          "internalType": "address",
          "name": "user",
          "type": "address"
        }
      ],
      "name": "getUserContributions",
      "outputs": [
        {
          "components": [
            {
              "internalType": "address",
              "name": "user",
              "type": "address"
            },
            {
              "internalType": "string",
              "name": "contributionType",
              "type": "string"
            },
            {
              "internalType": "uint256",
              "name": "points",
              "type": "uint256"
            },
            {
              "internalType": "uint256",
              "name": "timestamp",
              "type": "uint256"
            }
          ],
          "internalType": "struct PerformanceTracker.Contribution[]",
          "name": "",
          "type": "tuple[]"
        }
      ],
      "stateMutability": "view",
      "type": "function"
    },
    {
      "inputs": [
        {
          "internalType": "address",
          "name": "user",
          "type": "address"
        }
      ],
      "name": "getUserPoints",
      "outputs": [
        {
          "internalType": "uint256",
          "name": "",
          "type": "uint256"
        }
      ],
      "stateMutability": "view",
      "type": "function"
    },
    {
      "inputs": [
        {
          "internalType": "address",
          "name": "user",
          "type": "address"
        },
        {
          "internalType": "string",
          "name": "contributionType",
          "type": "string"
        },
        {
          "internalType": "uint256",
          "name": "points",
          "type": "uint256"
        }
      ],
      "name": "logContribution",
      "outputs": [],
      "stateMutability": "nonpayable",
      "type": "function"
    },
    {
      "inputs": [
        {
          "internalType": "address",
          "name": "",
          "type": "address"
        },
        {
          "internalType": "uint256",
          "name": "",
          "type": "uint256"
        }
      ],
      "name": "userContributions",
      "outputs": [
        {
          "internalType": "address",
          "name": "user",
          "type": "address"
        },
        {
          "internalType": "string",
          "name": "contributionType",
          "type": "string"
        },
        {
          "internalType": "uint256",
          "name": "points",
          "type": "uint256"
        },
        {
          "internalType": "uint256",
          "name": "timestamp",
          "type": "uint256"
        }
      ],
      "stateMutability": "view",
      "type": "function"
    },
    {
      "inputs": [
        {
          "internalType": "address",
          "name": "",
          "type": "address"
        }
      ],
      "name": "userPoints",
      "outputs": [
        {
          "internalType": "uint256",
          "name": "",
          "type": "uint256"
        }
      ],
      "stateMutability": "view",
      "type": "function"
    }
  ],
  "bytecode": "0x608060405234801561001057600080fd5b5061183c806100206000396000f3fe608060405234801561001057600080fd5b506004361061007d5760003560e01c8063967a05d11161005b578063967a05d114610107578063aeefe31f14610123578063e36465a314610153578063f50ddbc7146101835761007d565b80635e1ea858146100825780636d763a6e146100b55780637331fa95146100d4575b600080fd5b61009c60048036038101906100979190610ce7565b6101b3565b6040516100ac9493929190610df4565b60405180910390f35b6100bd61029b565b6040516100cb929190610fbc565b60405180910390f35b6100ee60048036038101906100e9919061101f565b61074b565b6040516100fe9493929190610df4565b60405180910390f35b610121600480360381019061011c9190611194565b610840565b005b61013d60048036038101906101389190611203565b610aa3565b60405161014a9190611230565b60405180910390f35b61016d60048036038101906101689190611203565b610aeb565b60405161017a91906113ba565b60405180910390f35b61019d60048036038101906101989190611203565b610c85565b6040516101aa9190611230565b60405180910390f35b600281815481106101c357600080fd5b90600052602060002090600402016000915090508060000160009054906101000a900473ffffffffffffffffffffffffffffffffffffffff169080600101805461020c9061140b565b80601f01602080910402602001604051908101604052809291908181526020018280546102389061140b565b80156102855780601f1061025a57610100808354040283529160200191610285565b820191906000526020600020905b81548152906001019060200180831161026857829003601f168201915b5050505050908060020154908060030154905084565b606080600060028054905067ffffffffffffffff8111156102bf576102be611069565b5b6040519080825280602002602001820160405280156102ed5781602001602082028036833780820191505090505b509050600060028054905067ffffffffffffffff81111561031157610310611069565b5b60405190808252806020026020018201604052801561033f5781602001602082028036833780820191505090505b5090506000805b600280549050811015610523576000600282815481106103695761036861143c565b5b906000526020600020906004020160000160009054906101000a900473ffffffffffffffffffffffffffffffffffffffff1690506000805b84811015610466578273ffffffffffffffffffffffffffffffffffffffff168782815181106103d3576103d261143c565b5b602002602001015173ffffffffffffffffffffffffffffffffffffffff1603610453576002848154811061040a5761040961143c565b5b90600052602060002090600402016002015486828151811061042f5761042e61143c565b5b60200260200101818151610443919061149a565b9150818152505060019150610466565b808061045e906114ce565b9150506103a1565b508061050e57818685815181106104805761047f61143c565b5b602002602001019073ffffffffffffffffffffffffffffffffffffffff16908173ffffffffffffffffffffffffffffffffffffffff1681525050600283815481106104ce576104cd61143c565b5b9060005260206000209060040201600201548585815181106104f3576104f261143c565b5b602002602001018181525050838061050a906114ce565b9450505b5050808061051b906114ce565b915050610346565b5060005b6001826105349190611516565b81101561073d5760005b6001828461054c9190611516565b6105569190611516565b811015610729578360018261056b919061149a565b8151811061057c5761057b61143c565b5b60200260200101518482815181106105975761059661143c565b5b6020026020010151101561071657846001826105b3919061149a565b815181106105c4576105c361143c565b5b60200260200101518582815181106105df576105de61143c565b5b60200260200101518683815181106105fa576105f961143c565b5b602002602001018760018561060f919061149a565b815181106106205761061f61143c565b5b602002602001018273ffffffffffffffffffffffffffffffffffffffff1673ffffffffffffffffffffffffffffffffffffffff168152508273ffffffffffffffffffffffffffffffffffffffff1673ffffffffffffffffffffffffffffffffffffffff16815250505083600182610697919061149a565b815181106106a8576106a761143c565b5b60200260200101518482815181106106c3576106c261143c565b5b60200260200101518583815181106106de576106dd61143c565b5b60200260200101866001856106f3919061149a565b815181106107045761070361143c565b5b60200260200101828152508281525050505b8080610721906114ce565b91505061053e565b508080610735906114ce565b915050610527565b508282945094505050509091565b6001602052816000526040600020818154811061076757600080fd5b9060005260206000209060040201600091509150508060000160009054906101000a900473ffffffffffffffffffffffffffffffffffffffff16908060010180546107b19061140b565b80601f01602080910402602001604051908101604052809291908181526020018280546107dd9061140b565b801561082a5780601f106107ff5761010080835404028352916020019161082a565b820191906000526020600020905b81548152906001019060200180831161080d57829003601f168201915b5050505050908060020154908060030154905084565b806000808573ffffffffffffffffffffffffffffffffffffffff1673ffffffffffffffffffffffffffffffffffffffff168152602001908152602001600020600082825461088e919061149a565b92505081905550600060405180608001604052808573ffffffffffffffffffffffffffffffffffffffff168152602001848152602001838152602001428152509050600160008573ffffffffffffffffffffffffffffffffffffffff1673ffffffffffffffffffffffffffffffffffffffff16815260200190815260200160002081908060018154018082558091505060019003906000526020600020906004020160009091909190915060008201518160000160006101000a81548173ffffffffffffffffffffffffffffffffffffffff021916908373ffffffffffffffffffffffffffffffffffffffff160217905550602082015181600101908161099591906116f6565b5060408201518160020155606082015181600301555050600281908060018154018082558091505060019003906000526020600020906004020160009091909190915060008201518160000160006101000a81548173ffffffffffffffffffffffffffffffffffffffff021916908373ffffffffffffffffffffffffffffffffffffffff1602179055506020820151816001019081610a3491906116f6565b50604082015181600201556060820151816003015550508373ffffffffffffffffffffffffffffffffffffffff167f418fc87480926b66537b9706f622a20f44e7bb9cc961e97e10b6a26981d835d8848442604051610a95939291906117c8565b60405180910390a250505050565b60008060008373ffffffffffffffffffffffffffffffffffffffff1673ffffffffffffffffffffffffffffffffffffffff168152602001908152602001600020549050919050565b6060600160008373ffffffffffffffffffffffffffffffffffffffff1673ffffffffffffffffffffffffffffffffffffffff168152602001908152602001600020805480602002602001604051908101604052809291908181526020016000905b82821015610c7a57838290600052602060002090600402016040518060800160405290816000820160009054906101000a900473ffffffffffffffffffffffffffffffffffffffff1673ffffffffffffffffffffffffffffffffffffffff1673ffffffffffffffffffffffffffffffffffffffff168152602001600182018054610bd59061140b565b80601f0160208091040260200160405190810160405280929190818152602001828054610c019061140b565b8015610c4e5780601f10610c2357610100808354040283529160200191610c4e565b820191906000526020600020905b815481529060010190602001808311610c3157829003601f168201915b505050505081526020016002820154815260200160038201548152505081526020019060010190610b4c565b505050509050919050565b60006020528060005260406000206000915090505481565b6000604051905090565b600080fd5b600080fd5b6000819050919050565b610cc481610cb1565b8114610ccf57600080fd5b50565b600081359050610ce181610cbb565b92915050565b600060208284031215610cfd57610cfc610ca7565b5b6000610d0b84828501610cd2565b91505092915050565b600073ffffffffffffffffffffffffffffffffffffffff82169050919050565b6000610d3f82610d14565b9050919050565b610d4f81610d34565b82525050565b600081519050919050565b600082825260208201905092915050565b60005b83811015610d8f578082015181840152602081019050610d74565b60008484015250505050565b6000601f19601f8301169050919050565b6000610db782610d55565b610dc18185610d60565b9350610dd1818560208601610d71565b610dda81610d9b565b840191505092915050565b610dee81610cb1565b82525050565b6000608082019050610e096000830187610d46565b8181036020830152610e1b8186610dac565b9050610e2a6040830185610de5565b610e376060830184610de5565b95945050505050565b600081519050919050565b600082825260208201905092915050565b6000819050602082019050919050565b610e7581610d34565b82525050565b6000610e878383610e6c565b60208301905092915050565b6000602082019050919050565b6000610eab82610e40565b610eb58185610e4b565b9350610ec083610e5c565b8060005b83811015610ef1578151610ed88882610e7b565b9750610ee383610e93565b925050600181019050610ec4565b5085935050505092915050565b600081519050919050565b600082825260208201905092915050565b6000819050602082019050919050565b610f3381610cb1565b82525050565b6000610f458383610f2a565b60208301905092915050565b6000602082019050919050565b6000610f6982610efe565b610f738185610f09565b9350610f7e83610f1a565b8060005b83811015610faf578151610f968882610f39565b9750610fa183610f51565b925050600181019050610f82565b5085935050505092915050565b60006040820190508181036000830152610fd68185610ea0565b90508181036020830152610fea8184610f5e565b90509392505050565b610ffc81610d34565b811461100757600080fd5b50565b60008135905061101981610ff3565b92915050565b6000806040838503121561103657611035610ca7565b5b60006110448582860161100a565b925050602061105585828601610cd2565b9150509250929050565b600080fd5b600080fd5b7f4e487b7100000000000000000000000000000000000000000000000000000000600052604160045260246000fd5b6110a182610d9b565b810181811067ffffffffffffffff821117156110c0576110bf611069565b5b80604052505050565b60006110d3610c9d565b90506110df8282611098565b919050565b600067ffffffffffffffff8211156110ff576110fe611069565b5b61110882610d9b565b9050602081019050919050565b82818337600083830152505050565b6000611137611132846110e4565b6110c9565b90508281526020810184848401111561115357611152611064565b5b61115e848285611115565b509392505050565b600082601f83011261117b5761117a61105f565b5b813561118b848260208601611124565b91505092915050565b6000806000606084860312156111ad576111ac610ca7565b5b60006111bb8682870161100a565b935050602084013567ffffffffffffffff8111156111dc576111db610cac565b5b6111e886828701611166565b92505060406111f986828701610cd2565b9150509250925092565b60006020828403121561121957611218610ca7565b5b60006112278482850161100a565b91505092915050565b60006020820190506112456000830184610de5565b92915050565b600081519050919050565b600082825260208201905092915050565b6000819050602082019050919050565b600082825260208201905092915050565b600061129382610d55565b61129d8185611277565b93506112ad818560208601610d71565b6112b681610d9b565b840191505092915050565b60006080830160008301516112d96000860182610e6c565b50602083015184820360208601526112f18282611288565b91505060408301516113066040860182610f2a565b5060608301516113196060860182610f2a565b508091505092915050565b600061133083836112c1565b905092915050565b6000602082019050919050565b60006113508261124b565b61135a8185611256565b93508360208202850161136c85611267565b8060005b858110156113a857848403895281516113898582611324565b945061139483611338565b925060208a01995050600181019050611370565b50829750879550505050505092915050565b600060208201905081810360008301526113d48184611345565b905092915050565b7f4e487b7100000000000000000000000000000000000000000000000000000000600052602260045260246000fd5b6000600282049050600182168061142357607f821691505b602082108103611436576114356113dc565b5b50919050565b7f4e487b7100000000000000000000000000000000000000000000000000000000600052603260045260246000fd5b7f4e487b7100000000000000000000000000000000000000000000000000000000600052601160045260246000fd5b60006114a582610cb1565b91506114b083610cb1565b92508282019050808211156114c8576114c761146b565b5b92915050565b60006114d982610cb1565b91507fffffffffffffffffffffffffffffffffffffffffffffffffffffffffffffffff820361150b5761150a61146b565b5b600182019050919050565b600061152182610cb1565b915061152c83610cb1565b92508282039050818111156115445761154361146b565b5b92915050565b60008190508160005260206000209050919050565b60006020601f8301049050919050565b600082821b905092915050565b6000600883026115ac7fffffffffffffffffffffffffffffffffffffffffffffffffffffffffffffffff8261156f565b6115b6868361156f565b95508019841693508086168417925050509392505050565b6000819050919050565b60006115f36115ee6115e984610cb1565b6115ce565b610cb1565b9050919050565b6000819050919050565b61160d836115d8565b611621611619826115fa565b84845461157c565b825550505050565b600090565b611636611629565b611641818484611604565b505050565b5b818110156116655761165a60008261162e565b600181019050611647565b5050565b601f8211156116aa5761167b8161154a565b6116848461155f565b81016020851015611693578190505b6116a761169f8561155f565b830182611646565b50505b505050565b600082821c905092915050565b60006116cd600019846008026116af565b1980831691505092915050565b60006116e683836116bc565b9150826002028217905092915050565b6116ff82610d55565b67ffffffffffffffff81111561171857611717611069565b5b611722825461140b565b61172d828285611669565b600060209050601f831160018114611760576000841561174e578287015190505b61175885826116da565b8655506117c0565b601f19841661176e8661154a565b60005b8281101561179657848901518255600182019150602085019450602081019050611771565b868310156117b357848901516117af601f8916826116bc565b8355505b6001600288020188555050505b505050505050565b600060608201905081810360008301526117e28186610dac565b90506117f16020830185610de5565b6117fe6040830184610de5565b94935050505056fea26469706673582212201410f1022431c4e57c27b08a8cbc6fee0d1a1188b7dbead1c4f9faede1b88cb964736f6c63430008130033",
  "linkReferences": {},
  "deployedLinkReferences": {}
}