{
  "_format": "hh-sol-artifact-1",
  "contractName": "BadgeNFT",
  "sourceName": "contracts/BadgeNFT.sol",
  "abi": [
    {
      "inputs": [],
      "stateMutability": "nonpayable",
      "type": "constructor"
    },
    {
      "anonymous": false,
      "inputs": [
        {
          "indexed": true,
          "internalType": "address",
          "name": "owner",
          "type": "address"
        },
        {
          "indexed": true,
          "internalType": "address",
          "name": "approved",
          "type": "address"
        },
        {
          "indexed": true,
          "internalType": "uint256",
          "name": "tokenId",
          "type": "uint256"
        }
      ],
      "name": "Approval",
      "type": "event"
    },
    {
      "anonymous": false,
      "inputs": [
        {
          "indexed": true,
          "internalType": "address",
          "name": "owner",
          "type": "address"
        },
        {
          "indexed": true,
          "internalType": "address",
          "name": "operator",
          "type": "address"
        },
        {
          "indexed": false,
          "internalType": "bool",
          "name": "approved",
          "type": "bool"
        }
      ],
      "name": "ApprovalForAll",
      "type": "event"
    },
    {
      "anonymous": false,
      "inputs": [
        {
          "indexed": true,
          "internalType": "address",
          "name": "to",
          "type": "address"
        },
        {
          "indexed": false,
          "internalType": "uint256",
          "name": "tokenId",
          "type": "uint256"
        },
        {
          "indexed": false,
          "internalType": "string",
          "name": "milestone",
          "type": "string"
        }
      ],
      "name": "BadgeMinted",
      "type": "event"
    },
    {
      "anonymous": false,
      "inputs": [
        {
          "indexed": true,
          "internalType": "address",
          "name": "previousOwner",
          "type": "address"
        },
        {
          "indexed": true,
          "internalType": "address",
          "name": "newOwner",
          "type": "address"
        }
      ],
      "name": "OwnershipTransferred",
      "type": "event"
    },
    {
      "anonymous": false,
      "inputs": [
        {
          "indexed": true,
          "internalType": "address",
          "name": "from",
          "type": "address"
        },
        {
          "indexed": true,
          "internalType": "address",
          "name": "to",
          "type": "address"
        },
        {
          "indexed": true,
          "internalType": "uint256",
          "name": "tokenId",
          "type": "uint256"
        }
      ],
      "name": "Transfer",
      "type": "event"
    },
    {
      "inputs": [
        {
          "internalType": "address",
          "name": "to",
          "type": "address"
        },
        {
          "internalType": "uint256",
          "name": "tokenId",
          "type": "uint256"
        }
      ],
      "name": "approve",
      "outputs": [],
      "stateMutability": "nonpayable",
      "type": "function"
    },
    {
      "inputs": [
        {
          "internalType": "uint256",
          "name": "",
          "type": "uint256"
        }
      ],
      "name": "badges",
      "outputs": [
        {
          "internalType": "string",
          "name": "name",
          "type": "string"
        },
        {
          "internalType": "string",
          "name": "description",
          "type": "string"
        },
        {
          "internalType": "string",
          "name": "milestone",
          "type": "string"
        },
        {
          "internalType": "uint256",
          "name": "earnedAt",
          "type": "uint256"
        }
      ],
      "stateMutability": "view",
      "type": "function"
    },
    {
      "inputs": [
        {
          "internalType": "address",
          "name": "owner",
          "type": "address"
        }
      ],
      "name": "balanceOf",
      "outputs": [
        {
          "internalType": "uint256",
          "name": "",
          "type": "uint256"
        }
      ],
      "stateMutability": "view",
      "type": "function"
    },
    {
      "inputs": [
        {
          "internalType": "uint256",
          "name": "tokenId",
          "type": "uint256"
        }
      ],
      "name": "getApproved",
      "outputs": [
        {
          "internalType": "address",
          "name": "",
          "type": "address"
        }
      ],
      "stateMutability": "view",
      "type": "function"
    },
    {
      "inputs": [
        {
          "internalType": "uint256",
          "name": "tokenId",
          "type": "uint256"
        }
      ],
      "name": "getBadge",
      "outputs": [
        {
          "components": [
            {
              "internalType": "string",
              "name": "name",
              "type": "string"
            },
            {
              "internalType": "string",
              "name": "description",
              "type": "string"
            },
            {
              "internalType": "string",
              "name": "milestone",
              "type": "string"
            },
            {
              "internalType": "uint256",
              "name": "earnedAt",
              "type": "uint256"
            }
          ],
          "internalType": "struct BadgeNFT.Badge",
          "name": "",
          "type": "tuple"
        }
      ],
      "stateMutability": "view",
      "type": "function"
    },
    {
      "inputs": [
        {
          "internalType": "address",
          "name": "owner",
          "type": "address"
        },
        {
          "internalType": "address",
          "name": "operator",
          "type": "address"
        }
      ],
      "name": "isApprovedForAll",
      "outputs": [
        {
          "internalType": "bool",
          "name": "",
          "type": "bool"
        }
      ],
      "stateMutability": "view",
      "type": "function"
    },
    {
      "inputs": [
        {
          "internalType": "address",
          "name": "to",
          "type": "address"
        },
        {
          "internalType": "string",
          "name": "name",
          "type": "string"
        },
        {
          "internalType": "string",
          "name": "description",
          "type": "string"
        },
        {
          "internalType": "string",
          "name": "milestone",
          "type": "string"
        }
      ],
      "name": "mintBadge",
      "outputs": [],
      "stateMutability": "nonpayable",
      "type": "function"
    },
    {
      "inputs": [],
      "name": "name",
      "outputs": [
        {
          "internalType": "string",
          "name": "",
          "type": "string"
        }
      ],
      "stateMutability": "view",
      "type": "function"
    },
    {
      "inputs": [],
      "name": "owner",
      "outputs": [
        {
          "internalType": "address",
          "name": "",
          "type": "address"
        }
      ],
      "stateMutability": "view",
      "type": "function"
    },
    {
      "inputs": [
        {
          "internalType": "uint256",
          "name": "tokenId",
          "type": "uint256"
        }
      ],
      "name": "ownerOf",
      "outputs": [
        {
          "internalType": "address",
          "name": "",
          "type": "address"
        }
      ],
      "stateMutability": "view",
      "type": "function"
    },
    {
      "inputs": [],
      "name": "renounceOwnership",
      "outputs": [],
      "stateMutability": "nonpayable",
      "type": "function"
    },
    {
      "inputs": [
        {
          "internalType": "address",
          "name": "from",
          "type": "address"
        },
        {
          "internalType": "address",
          "name": "to",
          "type": "address"
        },
        {
          "internalType": "uint256",
          "name": "tokenId",
          "type": "uint256"
        }
      ],
      "name": "safeTransferFrom",
      "outputs": [],
      "stateMutability": "nonpayable",
      "type": "function"
    },
    {
      "inputs": [
        {
          "internalType": "address",
          "name": "from",
          "type": "address"
        },
        {
          "internalType": "address",
          "name": "to",
          "type": "address"
        },
        {
          "internalType": "uint256",
          "name": "tokenId",
          "type": "uint256"
        },
        {
          "internalType": "bytes",
          "name": "data",
          "type": "bytes"
        }
      ],
      "name": "safeTransferFrom",
      "outputs": [],
      "stateMutability": "nonpayable",
      "type": "function"
    },
    {
      "inputs": [
        {
          "internalType": "address",
          "name": "operator",
          "type": "address"
        },
        {
          "internalType": "bool",
          "name": "approved",
          "type": "bool"
        }
      ],
      "name": "setApprovalForAll",
      "outputs": [],
      "stateMutability": "nonpayable",
      "type": "function"
    },
    {
      "inputs": [
        {
          "internalType": "bytes4",
          "name": "interfaceId",
          "type": "bytes4"
        }
      ],
      "name": "supportsInterface",
      "outputs": [
        {
          "internalType": "bool",
          "name": "",
          "type": "bool"
        }
      ],
      "stateMutability": "view",
      "type": "function"
    },
    {
      "inputs": [],
      "name": "symbol",
      "outputs": [
        {
          "internalType": "string",
          "name": "",
          "type": "string"
        }
      ],
      "stateMutability": "view",
      "type": "function"
    },
    {
      "inputs": [
        {
          "internalType": "uint256",
          "name": "tokenId",
          "type": "uint256"
        }
      ],
      "name": "tokenURI",
      "outputs": [
        {
          "internalType": "string",
          "name": "",
          "type": "string"
        }
      ],
      "stateMutability": "view",
      "type": "function"
    },
    {
      "inputs": [
        {
          "internalType": "address",
          "name": "from",
          "type": "address"
        },
        {
          "internalType": "address",
          "name": "to",
          "type": "address"
        },
        {
          "internalType": "uint256",
          "name": "tokenId",
          "type": "uint256"
        }
      ],
      "name": "transferFrom",
      "outputs": [],
      "stateMutability": "nonpayable",
      "type": "function"
    },
    {
      "inputs": [
        {
          "internalType": "address",
          "name": "newOwner",
          "type": "address"
        }
      ],
      "name": "transferOwnership",
      "outputs": [],
      "stateMutability": "nonpayable",
      "type": "function"
    }
  ],
  "bytecode": "0x60806040523480156200001157600080fd5b506040518060400160405280600f81526020017f5461736b436861696e20426164676500000000000000000000000000000000008152506040518060400160405280600381526020017f544342000000000000000000000000000000000000000000000000000000000081525081600090816200008f919062000412565b508060019081620000a1919062000412565b505050620000c4620000b8620000ca60201b60201c565b620000d260201b60201c565b620004f9565b600033905090565b6000600660009054906101000a900473ffffffffffffffffffffffffffffffffffffffff16905081600660006101000a81548173ffffffffffffffffffffffffffffffffffffffff021916908373ffffffffffffffffffffffffffffffffffffffff1602179055508173ffffffffffffffffffffffffffffffffffffffff168173ffffffffffffffffffffffffffffffffffffffff167f8be0079c531659141344cd1fd0a4f28419497f9722a3daafe3b4186f6b6457e060405160405180910390a35050565b600081519050919050565b7f4e487b7100000000000000000000000000000000000000000000000000000000600052604160045260246000fd5b7f4e487b7100000000000000000000000000000000000000000000000000000000600052602260045260246000fd5b600060028204905060018216806200021a57607f821691505b60208210810362000230576200022f620001d2565b5b50919050565b60008190508160005260206000209050919050565b60006020601f8301049050919050565b600082821b905092915050565b6000600883026200029a7fffffffffffffffffffffffffffffffffffffffffffffffffffffffffffffffff826200025b565b620002a686836200025b565b95508019841693508086168417925050509392505050565b6000819050919050565b6000819050919050565b6000620002f3620002ed620002e784620002be565b620002c8565b620002be565b9050919050565b6000819050919050565b6200030f83620002d2565b620003276200031e82620002fa565b84845462000268565b825550505050565b600090565b6200033e6200032f565b6200034b81848462000304565b505050565b5b8181101562000373576200036760008262000334565b60018101905062000351565b5050565b601f821115620003c2576200038c8162000236565b62000397846200024b565b81016020851015620003a7578190505b620003bf620003b6856200024b565b83018262000350565b50505b505050565b600082821c905092915050565b6000620003e760001984600802620003c7565b1980831691505092915050565b6000620004028383620003d4565b9150826002028217905092915050565b6200041d8262000198565b67ffffffffffffffff811115620004395762000438620001a3565b5b62000445825462000201565b6200045282828562000377565b600060209050601f8311600181146200048a576000841562000475578287015190505b620004818582620003f4565b865550620004f1565b601f1984166200049a8662000236565b60005b82811015620004c4578489015182556001820191506020850194506020810190506200049d565b86831015620004e45784890151620004e0601f891682620003d4565b8355505b6001600288020188555050505b505050505050565b6137ca80620005096000396000f3fe608060405234801561001057600080fd5b50600436106101215760003560e01c80638d838622116100ad578063b88d4fde11610071578063b88d4fde1461031d578063c2ed630e14610339578063c87b56dd14610355578063e985e9c514610385578063f2fde38b146103b557610121565b80638d838622146102625780638da5cb5b1461029257806395d89b41146102b057806398e36d8b146102ce578063a22cb4651461030157610121565b806323b872dd116100f457806323b872dd146101c057806342842e0e146101dc5780636352211e146101f857806370a0823114610228578063715018a61461025857610121565b806301ffc9a71461012657806306fdde0314610156578063081812fc14610174578063095ea7b3146101a4575b600080fd5b610140600480360381019061013b91906120ae565b6103d1565b60405161014d91906120f6565b60405180910390f35b61015e6104b3565b60405161016b91906121a1565b60405180910390f35b61018e600480360381019061018991906121f9565b610545565b60405161019b9190612267565b60405180910390f35b6101be60048036038101906101b991906122ae565b61058b565b005b6101da60048036038101906101d591906122ee565b6106a2565b005b6101f660048036038101906101f191906122ee565b610702565b005b610212600480360381019061020d91906121f9565b610722565b60405161021f9190612267565b60405180910390f35b610242600480360381019061023d9190612341565b6107a8565b60405161024f919061237d565b60405180910390f35b61026061085f565b005b61027c600480360381019061027791906121f9565b610873565b6040516102899190612462565b60405180910390f35b61029a610a60565b6040516102a79190612267565b60405180910390f35b6102b8610a8a565b6040516102c591906121a1565b60405180910390f35b6102e860048036038101906102e391906121f9565b610b1c565b6040516102f89493929190612484565b60405180910390f35b61031b6004803603810190610316919061250a565b610ce4565b005b6103376004803603810190610332919061267f565b610cfa565b005b610353600480360381019061034e91906127a3565b610d5c565b005b61036f600480360381019061036a91906121f9565b610e60565b60405161037c91906121a1565b60405180910390f35b61039f600480360381019061039a919061285e565b6110b7565b6040516103ac91906120f6565b60405180910390f35b6103cf60048036038101906103ca9190612341565b61114b565b005b60007f80ac58cd000000000000000000000000000000000000000000000000000000007bffffffffffffffffffffffffffffffffffffffffffffffffffffffff1916827bffffffffffffffffffffffffffffffffffffffffffffffffffffffff1916148061049c57507f5b5e139f000000000000000000000000000000000000000000000000000000007bffffffffffffffffffffffffffffffffffffffffffffffffffffffff1916827bffffffffffffffffffffffffffffffffffffffffffffffffffffffff1916145b806104ac57506104ab826111ce565b5b9050919050565b6060600080546104c2906128cd565b80601f01602080910402602001604051908101604052809291908181526020018280546104ee906128cd565b801561053b5780601f106105105761010080835404028352916020019161053b565b820191906000526020600020905b81548152906001019060200180831161051e57829003601f168201915b5050505050905090565b600061055082611238565b6004600083815260200190815260200160002060009054906101000a900473ffffffffffffffffffffffffffffffffffffffff169050919050565b600061059682610722565b90508073ffffffffffffffffffffffffffffffffffffffff168373ffffffffffffffffffffffffffffffffffffffff1603610606576040517f08c379a00000000000000000000000000000000000000000000000000000000081526004016105fd90612970565b60405180910390fd5b8073ffffffffffffffffffffffffffffffffffffffff16610625611283565b73ffffffffffffffffffffffffffffffffffffffff16148061065457506106538161064e611283565b6110b7565b5b610693576040517f08c379a000000000000000000000000000000000000000000000000000000000815260040161068a90612a02565b60405180910390fd5b61069d838361128b565b505050565b6106b36106ad611283565b82611344565b6106f2576040517f08c379a00000000000000000000000000000000000000000000000000000000081526004016106e990612a94565b60405180910390fd5b6106fd8383836113d9565b505050565b61071d83838360405180602001604052806000815250610cfa565b505050565b60008061072e836116d2565b9050600073ffffffffffffffffffffffffffffffffffffffff168173ffffffffffffffffffffffffffffffffffffffff160361079f576040517f08c379a000000000000000000000000000000000000000000000000000000000815260040161079690612b00565b60405180910390fd5b80915050919050565b60008073ffffffffffffffffffffffffffffffffffffffff168273ffffffffffffffffffffffffffffffffffffffff1603610818576040517f08c379a000000000000000000000000000000000000000000000000000000000815260040161080f90612b92565b60405180910390fd5b600360008373ffffffffffffffffffffffffffffffffffffffff1673ffffffffffffffffffffffffffffffffffffffff168152602001908152602001600020549050919050565b61086761170f565b610871600061178d565b565b61087b61201a565b600860008381526020019081526020016000206040518060800160405290816000820180546108a9906128cd565b80601f01602080910402602001604051908101604052809291908181526020018280546108d5906128cd565b80156109225780601f106108f757610100808354040283529160200191610922565b820191906000526020600020905b81548152906001019060200180831161090557829003601f168201915b5050505050815260200160018201805461093b906128cd565b80601f0160208091040260200160405190810160405280929190818152602001828054610967906128cd565b80156109b45780601f10610989576101008083540402835291602001916109b4565b820191906000526020600020905b81548152906001019060200180831161099757829003601f168201915b505050505081526020016002820180546109cd906128cd565b80601f01602080910402602001604051908101604052809291908181526020018280546109f9906128cd565b8015610a465780601f10610a1b57610100808354040283529160200191610a46565b820191906000526020600020905b815481529060010190602001808311610a2957829003601f168201915b505050505081526020016003820154815250509050919050565b6000600660009054906101000a900473ffffffffffffffffffffffffffffffffffffffff16905090565b606060018054610a99906128cd565b80601f0160208091040260200160405190810160405280929190818152602001828054610ac5906128cd565b8015610b125780601f10610ae757610100808354040283529160200191610b12565b820191906000526020600020905b815481529060010190602001808311610af557829003601f168201915b5050505050905090565b6008602052806000526040600020600091509050806000018054610b3f906128cd565b80601f0160208091040260200160405190810160405280929190818152602001828054610b6b906128cd565b8015610bb85780601f10610b8d57610100808354040283529160200191610bb8565b820191906000526020600020905b815481529060010190602001808311610b9b57829003601f168201915b505050505090806001018054610bcd906128cd565b80601f0160208091040260200160405190810160405280929190818152602001828054610bf9906128cd565b8015610c465780601f10610c1b57610100808354040283529160200191610c46565b820191906000526020600020905b815481529060010190602001808311610c2957829003601f168201915b505050505090806002018054610c5b906128cd565b80601f0160208091040260200160405190810160405280929190818152602001828054610c87906128cd565b8015610cd45780601f10610ca957610100808354040283529160200191610cd4565b820191906000526020600020905b815481529060010190602001808311610cb757829003601f168201915b5050505050908060030154905084565b610cf6610cef611283565b8383611853565b5050565b610d0b610d05611283565b83611344565b610d4a576040517f08c379a0000000000000000000000000000000000000000000000000000000008152600401610d4190612a94565b60405180910390fd5b610d56848484846119bf565b50505050565b610d6461170f565b6000610d706007611a1b565b9050610d7c6007611a29565b610d868582611a3f565b604051806080016040528085815260200184815260200183815260200142815250600860008381526020019081526020016000206000820151816000019081610dcf9190612d5e565b506020820151816001019081610de59190612d5e565b506040820151816002019081610dfb9190612d5e565b50606082015181600301559050508473ffffffffffffffffffffffffffffffffffffffff167f6854c057dc92416510857b3daad5434a4202a4d192cf0f85d496d91974efaea38284604051610e51929190612e30565b60405180910390a25050505050565b6060600060086000848152602001908152602001600020604051806080016040529081600082018054610e92906128cd565b80601f0160208091040260200160405190810160405280929190818152602001828054610ebe906128cd565b8015610f0b5780601f10610ee057610100808354040283529160200191610f0b565b820191906000526020600020905b815481529060010190602001808311610eee57829003601f168201915b50505050508152602001600182018054610f24906128cd565b80601f0160208091040260200160405190810160405280929190818152602001828054610f50906128cd565b8015610f9d5780601f10610f7257610100808354040283529160200191610f9d565b820191906000526020600020905b815481529060010190602001808311610f8057829003601f168201915b50505050508152602001600282018054610fb6906128cd565b80601f0160208091040260200160405190810160405280929190818152602001828054610fe2906128cd565b801561102f5780601f106110045761010080835404028352916020019161102f565b820191906000526020600020905b81548152906001019060200180831161101257829003601f168201915b50505050508152602001600382015481525050905060008160000151826020015183604001516110628560600151611c5c565b6040516020016110759493929190613018565b604051602081830303815290604052905061108f81611de4565b60405160200161109f91906130d9565b60405160208183030381529060405292505050919050565b6000600560008473ffffffffffffffffffffffffffffffffffffffff1673ffffffffffffffffffffffffffffffffffffffff16815260200190815260200160002060008373ffffffffffffffffffffffffffffffffffffffff1673ffffffffffffffffffffffffffffffffffffffff16815260200190815260200160002060009054906101000a900460ff16905092915050565b61115361170f565b600073ffffffffffffffffffffffffffffffffffffffff168173ffffffffffffffffffffffffffffffffffffffff16036111c2576040517f08c379a00000000000000000000000000000000000000000000000000000000081526004016111b99061316d565b60405180910390fd5b6111cb8161178d565b50565b60007f01ffc9a7000000000000000000000000000000000000000000000000000000007bffffffffffffffffffffffffffffffffffffffffffffffffffffffff1916827bffffffffffffffffffffffffffffffffffffffffffffffffffffffff1916149050919050565b61124181611e23565b611280576040517f08c379a000000000000000000000000000000000000000000000000000000000815260040161127790612b00565b60405180910390fd5b50565b600033905090565b816004600083815260200190815260200160002060006101000a81548173ffffffffffffffffffffffffffffffffffffffff021916908373ffffffffffffffffffffffffffffffffffffffff160217905550808273ffffffffffffffffffffffffffffffffffffffff166112fe83610722565b73ffffffffffffffffffffffffffffffffffffffff167f8c5be1e5ebec7d5bd14f71427d1e84f3dd0314c0f7b2291e5b200ac8c7c3b92560405160405180910390a45050565b60008061135083610722565b90508073ffffffffffffffffffffffffffffffffffffffff168473ffffffffffffffffffffffffffffffffffffffff161480611392575061139181856110b7565b5b806113d057508373ffffffffffffffffffffffffffffffffffffffff166113b884610545565b73ffffffffffffffffffffffffffffffffffffffff16145b91505092915050565b8273ffffffffffffffffffffffffffffffffffffffff166113f982610722565b73ffffffffffffffffffffffffffffffffffffffff161461144f576040517f08c379a0000000000000000000000000000000000000000000000000000000008152600401611446906131ff565b60405180910390fd5b600073ffffffffffffffffffffffffffffffffffffffff168273ffffffffffffffffffffffffffffffffffffffff16036114be576040517f08c379a00000000000000000000000000000000000000000000000000000000081526004016114b590613291565b60405180910390fd5b6114cb8383836001611e64565b8273ffffffffffffffffffffffffffffffffffffffff166114eb82610722565b73ffffffffffffffffffffffffffffffffffffffff1614611541576040517f08c379a0000000000000000000000000000000000000000000000000000000008152600401611538906131ff565b60405180910390fd5b6004600082815260200190815260200160002060006101000a81549073ffffffffffffffffffffffffffffffffffffffff02191690556001600360008573ffffffffffffffffffffffffffffffffffffffff1673ffffffffffffffffffffffffffffffffffffffff168152602001908152602001600020600082825403925050819055506001600360008473ffffffffffffffffffffffffffffffffffffffff1673ffffffffffffffffffffffffffffffffffffffff16815260200190815260200160002060008282540192505081905550816002600083815260200190815260200160002060006101000a81548173ffffffffffffffffffffffffffffffffffffffff021916908373ffffffffffffffffffffffffffffffffffffffff160217905550808273ffffffffffffffffffffffffffffffffffffffff168473ffffffffffffffffffffffffffffffffffffffff167fddf252ad1be2c89b69c2b068fc378daa952ba7f163c4a11628f55a4df523b3ef60405160405180910390a46116cd8383836001611e6a565b505050565b60006002600083815260200190815260200160002060009054906101000a900473ffffffffffffffffffffffffffffffffffffffff169050919050565b611717611283565b73ffffffffffffffffffffffffffffffffffffffff16611735610a60565b73ffffffffffffffffffffffffffffffffffffffff161461178b576040517f08c379a0000000000000000000000000000000000000000000000000000000008152600401611782906132fd565b60405180910390fd5b565b6000600660009054906101000a900473ffffffffffffffffffffffffffffffffffffffff16905081600660006101000a81548173ffffffffffffffffffffffffffffffffffffffff021916908373ffffffffffffffffffffffffffffffffffffffff1602179055508173ffffffffffffffffffffffffffffffffffffffff168173ffffffffffffffffffffffffffffffffffffffff167f8be0079c531659141344cd1fd0a4f28419497f9722a3daafe3b4186f6b6457e060405160405180910390a35050565b8173ffffffffffffffffffffffffffffffffffffffff168373ffffffffffffffffffffffffffffffffffffffff16036118c1576040517f08c379a00000000000000000000000000000000000000000000000000000000081526004016118b890613369565b60405180910390fd5b80600560008573ffffffffffffffffffffffffffffffffffffffff1673ffffffffffffffffffffffffffffffffffffffff16815260200190815260200160002060008473ffffffffffffffffffffffffffffffffffffffff1673ffffffffffffffffffffffffffffffffffffffff16815260200190815260200160002060006101000a81548160ff0219169083151502179055508173ffffffffffffffffffffffffffffffffffffffff168373ffffffffffffffffffffffffffffffffffffffff167f17307eab39ab6107e8899845ad3d59bd9653f200f220920489ca2b5937696c31836040516119b291906120f6565b60405180910390a3505050565b6119ca8484846113d9565b6119d684848484611e70565b611a15576040517f08c379a0000000000000000000000000000000000000000000000000000000008152600401611a0c906133fb565b60405180910390fd5b50505050565b600081600001549050919050565b6001816000016000828254019250508190555050565b600073ffffffffffffffffffffffffffffffffffffffff168273ffffffffffffffffffffffffffffffffffffffff1603611aae576040517f08c379a0000000000000000000000000000000000000000000000000000000008152600401611aa590613467565b60405180910390fd5b611ab781611e23565b15611af7576040517f08c379a0000000000000000000000000000000000000000000000000000000008152600401611aee906134d3565b60405180910390fd5b611b05600083836001611e64565b611b0e81611e23565b15611b4e576040517f08c379a0000000000000000000000000000000000000000000000000000000008152600401611b45906134d3565b60405180910390fd5b6001600360008473ffffffffffffffffffffffffffffffffffffffff1673ffffffffffffffffffffffffffffffffffffffff16815260200190815260200160002060008282540192505081905550816002600083815260200190815260200160002060006101000a81548173ffffffffffffffffffffffffffffffffffffffff021916908373ffffffffffffffffffffffffffffffffffffffff160217905550808273ffffffffffffffffffffffffffffffffffffffff16600073ffffffffffffffffffffffffffffffffffffffff167fddf252ad1be2c89b69c2b068fc378daa952ba7f163c4a11628f55a4df523b3ef60405160405180910390a4611c58600083836001611e6a565b5050565b606060008203611ca3576040518060400160405280600181526020017f30000000000000000000000000000000000000000000000000000000000000008152509050611ddf565b600082905060005b60008214611cd5578080611cbe90613522565b915050600a82611cce9190613599565b9150611cab565b60008167ffffffffffffffff811115611cf157611cf0612554565b5b6040519080825280601f01601f191660200182016040528015611d235781602001600182028036833780820191505090505b50905060008290505b60008614611dd757600181611d4191906135ca565b90506000600a8088611d539190613599565b611d5d91906135fe565b87611d6891906135ca565b6030611d74919061364d565b905060008160f81b905080848481518110611d9257611d91613682565b5b60200101907effffffffffffffffffffffffffffffffffffffffffffffffffffffffffffff1916908160001a905350600a88611dce9190613599565b97505050611d2c565b819450505050505b919050565b60606040518060400160405280601381526020017f626173653634656e636f646564737472696e67000000000000000000000000008152509050919050565b60008073ffffffffffffffffffffffffffffffffffffffff16611e45836116d2565b73ffffffffffffffffffffffffffffffffffffffff1614159050919050565b50505050565b50505050565b6000611e918473ffffffffffffffffffffffffffffffffffffffff16611ff7565b15611fea578373ffffffffffffffffffffffffffffffffffffffff1663150b7a02611eba611283565b8786866040518563ffffffff1660e01b8152600401611edc9493929190613706565b6020604051808303816000875af1925050508015611f1857506040513d601f19601f82011682018060405250810190611f159190613767565b60015b611f9a573d8060008114611f48576040519150601f19603f3d011682016040523d82523d6000602084013e611f4d565b606091505b506000815103611f92576040517f08c379a0000000000000000000000000000000000000000000000000000000008152600401611f89906133fb565b60405180910390fd5b805181602001fd5b63150b7a0260e01b7bffffffffffffffffffffffffffffffffffffffffffffffffffffffff1916817bffffffffffffffffffffffffffffffffffffffffffffffffffffffff191614915050611fef565b600190505b949350505050565b6000808273ffffffffffffffffffffffffffffffffffffffff163b119050919050565b6040518060800160405280606081526020016060815260200160608152602001600081525090565b6000604051905090565b600080fd5b600080fd5b60007fffffffff0000000000000000000000000000000000000000000000000000000082169050919050565b61208b81612056565b811461209657600080fd5b50565b6000813590506120a881612082565b92915050565b6000602082840312156120c4576120c361204c565b5b60006120d284828501612099565b91505092915050565b60008115159050919050565b6120f0816120db565b82525050565b600060208201905061210b60008301846120e7565b92915050565b600081519050919050565b600082825260208201905092915050565b60005b8381101561214b578082015181840152602081019050612130565b60008484015250505050565b6000601f19601f8301169050919050565b600061217382612111565b61217d818561211c565b935061218d81856020860161212d565b61219681612157565b840191505092915050565b600060208201905081810360008301526121bb8184612168565b905092915050565b6000819050919050565b6121d6816121c3565b81146121e157600080fd5b50565b6000813590506121f3816121cd565b92915050565b60006020828403121561220f5761220e61204c565b5b600061221d848285016121e4565b91505092915050565b600073ffffffffffffffffffffffffffffffffffffffff82169050919050565b600061225182612226565b9050919050565b61226181612246565b82525050565b600060208201905061227c6000830184612258565b92915050565b61228b81612246565b811461229657600080fd5b50565b6000813590506122a881612282565b92915050565b600080604083850312156122c5576122c461204c565b5b60006122d385828601612299565b92505060206122e4858286016121e4565b9150509250929050565b6000806000606084860312156123075761230661204c565b5b600061231586828701612299565b935050602061232686828701612299565b9250506040612337868287016121e4565b9150509250925092565b6000602082840312156123575761235661204c565b5b600061236584828501612299565b91505092915050565b612377816121c3565b82525050565b6000602082019050612392600083018461236e565b92915050565b600082825260208201905092915050565b60006123b482612111565b6123be8185612398565b93506123ce81856020860161212d565b6123d781612157565b840191505092915050565b6123eb816121c3565b82525050565b6000608083016000830151848203600086015261240e82826123a9565b9150506020830151848203602086015261242882826123a9565b9150506040830151848203604086015261244282826123a9565b915050606083015161245760608601826123e2565b508091505092915050565b6000602082019050818103600083015261247c81846123f1565b905092915050565b6000608082019050818103600083015261249e8187612168565b905081810360208301526124b28186612168565b905081810360408301526124c68185612168565b90506124d5606083018461236e565b95945050505050565b6124e7816120db565b81146124f257600080fd5b50565b600081359050612504816124de565b92915050565b600080604083850312156125215761252061204c565b5b600061252f85828601612299565b9250506020612540858286016124f5565b9150509250929050565b600080fd5b600080fd5b7f4e487b7100000000000000000000000000000000000000000000000000000000600052604160045260246000fd5b61258c82612157565b810181811067ffffffffffffffff821117156125ab576125aa612554565b5b80604052505050565b60006125be612042565b90506125ca8282612583565b919050565b600067ffffffffffffffff8211156125ea576125e9612554565b5b6125f382612157565b9050602081019050919050565b82818337600083830152505050565b600061262261261d846125cf565b6125b4565b90508281526020810184848401111561263e5761263d61254f565b5b612649848285612600565b509392505050565b600082601f8301126126665761266561254a565b5b813561267684826020860161260f565b91505092915050565b600080600080608085870312156126995761269861204c565b5b60006126a787828801612299565b94505060206126b887828801612299565b93505060406126c9878288016121e4565b925050606085013567ffffffffffffffff8111156126ea576126e9612051565b5b6126f687828801612651565b91505092959194509250565b600067ffffffffffffffff82111561271d5761271c612554565b5b61272682612157565b9050602081019050919050565b600061274661274184612702565b6125b4565b9050828152602081018484840111156127625761276161254f565b5b61276d848285612600565b509392505050565b600082601f83011261278a5761278961254a565b5b813561279a848260208601612733565b91505092915050565b600080600080608085870312156127bd576127bc61204c565b5b60006127cb87828801612299565b945050602085013567ffffffffffffffff8111156127ec576127eb612051565b5b6127f887828801612775565b935050604085013567ffffffffffffffff81111561281957612818612051565b5b61282587828801612775565b925050606085013567ffffffffffffffff81111561284657612845612051565b5b61285287828801612775565b91505092959194509250565b600080604083850312156128755761287461204c565b5b600061288385828601612299565b925050602061289485828601612299565b9150509250929050565b7f4e487b7100000000000000000000000000000000000000000000000000000000600052602260045260246000fd5b600060028204905060018216806128e557607f821691505b6020821081036128f8576128f761289e565b5b50919050565b7f4552433732313a20617070726f76616c20746f2063757272656e74206f776e6560008201527f7200000000000000000000000000000000000000000000000000000000000000602082015250565b600061295a60218361211c565b9150612965826128fe565b604082019050919050565b600060208201905081810360008301526129898161294d565b9050919050565b7f4552433732313a20617070726f76652063616c6c6572206973206e6f7420746f60008201527f6b656e206f776e6572206f7220617070726f76656420666f7220616c6c000000602082015250565b60006129ec603d8361211c565b91506129f782612990565b604082019050919050565b60006020820190508181036000830152612a1b816129df565b9050919050565b7f4552433732313a2063616c6c6572206973206e6f7420746f6b656e206f776e6560008201527f72206f7220617070726f76656400000000000000000000000000000000000000602082015250565b6000612a7e602d8361211c565b9150612a8982612a22565b604082019050919050565b60006020820190508181036000830152612aad81612a71565b9050919050565b7f4552433732313a20696e76616c696420746f6b656e2049440000000000000000600082015250565b6000612aea60188361211c565b9150612af582612ab4565b602082019050919050565b60006020820190508181036000830152612b1981612add565b9050919050565b7f4552433732313a2061646472657373207a65726f206973206e6f74206120766160008201527f6c6964206f776e65720000000000000000000000000000000000000000000000602082015250565b6000612b7c60298361211c565b9150612b8782612b20565b604082019050919050565b60006020820190508181036000830152612bab81612b6f565b9050919050565b60008190508160005260206000209050919050565b60006020601f8301049050919050565b600082821b905092915050565b600060088302612c147fffffffffffffffffffffffffffffffffffffffffffffffffffffffffffffffff82612bd7565b612c1e8683612bd7565b95508019841693508086168417925050509392505050565b6000819050919050565b6000612c5b612c56612c51846121c3565b612c36565b6121c3565b9050919050565b6000819050919050565b612c7583612c40565b612c89612c8182612c62565b848454612be4565b825550505050565b600090565b612c9e612c91565b612ca9818484612c6c565b505050565b5b81811015612ccd57612cc2600082612c96565b600181019050612caf565b5050565b601f821115612d1257612ce381612bb2565b612cec84612bc7565b81016020851015612cfb578190505b612d0f612d0785612bc7565b830182612cae565b50505b505050565b600082821c905092915050565b6000612d3560001984600802612d17565b1980831691505092915050565b6000612d4e8383612d24565b9150826002028217905092915050565b612d6782612111565b67ffffffffffffffff811115612d8057612d7f612554565b5b612d8a82546128cd565b612d95828285612cd1565b600060209050601f831160018114612dc85760008415612db6578287015190505b612dc08582612d42565b865550612e28565b601f198416612dd686612bb2565b60005b82811015612dfe57848901518255600182019150602085019450602081019050612dd9565b86831015612e1b5784890151612e17601f891682612d24565b8355505b6001600288020188555050505b505050505050565b6000604082019050612e45600083018561236e565b8181036020830152612e578184612168565b90509392505050565b600081905092915050565b7f7b226e616d65223a202200000000000000000000000000000000000000000000600082015250565b6000612ea1600a83612e60565b9150612eac82612e6b565b600a82019050919050565b6000612ec282612111565b612ecc8185612e60565b9350612edc81856020860161212d565b80840191505092915050565b7f222c20226465736372697074696f6e223a202200000000000000000000000000600082015250565b6000612f1e601383612e60565b9150612f2982612ee8565b601382019050919050565b7f222c20226d696c6573746f6e65223a2022000000000000000000000000000000600082015250565b6000612f6a601183612e60565b9150612f7582612f34565b601182019050919050565b7f222c20226561726e65644174223a202200000000000000000000000000000000600082015250565b6000612fb6601083612e60565b9150612fc182612f80565b601082019050919050565b7f227d000000000000000000000000000000000000000000000000000000000000600082015250565b6000613002600283612e60565b915061300d82612fcc565b600282019050919050565b600061302382612e94565b915061302f8287612eb7565b915061303a82612f11565b91506130468286612eb7565b915061305182612f5d565b915061305d8285612eb7565b915061306882612fa9565b91506130748284612eb7565b915061307f82612ff5565b915081905095945050505050565b7f646174613a6170706c69636174696f6e2f6a736f6e3b6261736536342c000000600082015250565b60006130c3601d83612e60565b91506130ce8261308d565b601d82019050919050565b60006130e4826130b6565b91506130f08284612eb7565b915081905092915050565b7f4f776e61626c653a206e6577206f776e657220697320746865207a65726f206160008201527f6464726573730000000000000000000000000000000000000000000000000000602082015250565b600061315760268361211c565b9150613162826130fb565b604082019050919050565b600060208201905081810360008301526131868161314a565b9050919050565b7f4552433732313a207472616e736665722066726f6d20696e636f72726563742060008201527f6f776e6572000000000000000000000000000000000000000000000000000000602082015250565b60006131e960258361211c565b91506131f48261318d565b604082019050919050565b60006020820190508181036000830152613218816131dc565b9050919050565b7f4552433732313a207472616e7366657220746f20746865207a65726f2061646460008201527f7265737300000000000000000000000000000000000000000000000000000000602082015250565b600061327b60248361211c565b91506132868261321f565b604082019050919050565b600060208201905081810360008301526132aa8161326e565b9050919050565b7f4f776e61626c653a2063616c6c6572206973206e6f7420746865206f776e6572600082015250565b60006132e760208361211c565b91506132f2826132b1565b602082019050919050565b60006020820190508181036000830152613316816132da565b9050919050565b7f4552433732313a20617070726f766520746f2063616c6c657200000000000000600082015250565b600061335360198361211c565b915061335e8261331d565b602082019050919050565b6000602082019050818103600083015261338281613346565b9050919050565b7f4552433732313a207472616e7366657220746f206e6f6e20455243373231526560008201527f63656976657220696d706c656d656e7465720000000000000000000000000000602082015250565b60006133e560328361211c565b91506133f082613389565b604082019050919050565b60006020820190508181036000830152613414816133d8565b9050919050565b7f4552433732313a206d696e7420746f20746865207a65726f2061646472657373600082015250565b600061345160208361211c565b915061345c8261341b565b602082019050919050565b6000602082019050818103600083015261348081613444565b9050919050565b7f4552433732313a20746f6b656e20616c7265616479206d696e74656400000000600082015250565b60006134bd601c8361211c565b91506134c882613487565b602082019050919050565b600060208201905081810360008301526134ec816134b0565b9050919050565b7f4e487b7100000000000000000000000000000000000000000000000000000000600052601160045260246000fd5b600061352d826121c3565b91507fffffffffffffffffffffffffffffffffffffffffffffffffffffffffffffffff820361355f5761355e6134f3565b5b600182019050919050565b7f4e487b7100000000000000000000000000000000000000000000000000000000600052601260045260246000fd5b60006135a4826121c3565b91506135af836121c3565b9250826135bf576135be61356a565b5b828204905092915050565b60006135d5826121c3565b91506135e0836121c3565b92508282039050818111156135f8576135f76134f3565b5b92915050565b6000613609826121c3565b9150613614836121c3565b9250828202613622816121c3565b91508282048414831517613639576136386134f3565b5b5092915050565b600060ff82169050919050565b600061365882613640565b915061366383613640565b9250828201905060ff81111561367c5761367b6134f3565b5b92915050565b7f4e487b7100000000000000000000000000000000000000000000000000000000600052603260045260246000fd5b600081519050919050565b600082825260208201905092915050565b60006136d8826136b1565b6136e281856136bc565b93506136f281856020860161212d565b6136fb81612157565b840191505092915050565b600060808201905061371b6000830187612258565b6137286020830186612258565b613735604083018561236e565b818103606083015261374781846136cd565b905095945050505050565b60008151905061376181612082565b92915050565b60006020828403121561377d5761377c61204c565b5b600061378b84828501613752565b9150509291505056fea26469706673582212202decdf18c80393128089f52217c0b0ac09660630e9219eea3ee301c27345dda564736f6c63430008130033",
  "linkReferences": {},
  "deployedLinkReferences": {}
}